{
  "contractName": "EthManager",
  "abi": [
    {
      "inputs": [],
      "payable": false,
      "stateMutability": "nonpayable",
      "type": "constructor"
    },
    {
      "anonymous": false,
      "inputs": [
        {
          "indexed": true,
          "internalType": "address",
          "name": "token",
          "type": "address"
        },
        {
          "indexed": true,
          "internalType": "address",
          "name": "sender",
          "type": "address"
        },
        {
          "indexed": false,
          "internalType": "uint256",
          "name": "amount",
          "type": "uint256"
        },
        {
          "indexed": false,
          "internalType": "address",
          "name": "recipient",
          "type": "address"
        }
      ],
      "name": "Locked",
      "type": "event"
    },
    {
      "anonymous": false,
      "inputs": [
        {
          "indexed": false,
          "internalType": "address",
          "name": "ethToken",
          "type": "address"
        },
        {
          "indexed": false,
          "internalType": "uint256",
          "name": "amount",
          "type": "uint256"
        },
        {
          "indexed": false,
          "internalType": "address",
          "name": "recipient",
          "type": "address"
        },
        {
          "indexed": false,
          "internalType": "bytes32",
          "name": "receiptId",
          "type": "bytes32"
        }
      ],
      "name": "Unlocked",
      "type": "event"
    },
    {
      "constant": true,
      "inputs": [],
      "name": "owner",
      "outputs": [
        {
          "internalType": "address",
          "name": "",
          "type": "address"
        }
      ],
      "payable": false,
      "stateMutability": "view",
      "type": "function"
    },
    {
      "constant": true,
      "inputs": [],
      "name": "threshold",
      "outputs": [
        {
          "internalType": "uint16",
          "name": "",
          "type": "uint16"
        }
      ],
      "payable": false,
      "stateMutability": "view",
      "type": "function"
    },
    {
      "constant": true,
      "inputs": [
        {
          "internalType": "bytes32",
          "name": "",
          "type": "bytes32"
        }
      ],
      "name": "usedEvents_",
      "outputs": [
        {
          "internalType": "bool",
          "name": "",
          "type": "bool"
        }
      ],
      "payable": false,
      "stateMutability": "view",
      "type": "function"
    },
    {
      "constant": true,
      "inputs": [
        {
          "internalType": "address",
          "name": "",
          "type": "address"
        }
      ],
      "name": "wards",
      "outputs": [
        {
          "internalType": "uint256",
          "name": "",
          "type": "uint256"
        }
      ],
      "payable": false,
      "stateMutability": "view",
      "type": "function"
    },
    {
      "constant": false,
      "inputs": [
        {
          "internalType": "address",
          "name": "guy",
          "type": "address"
        }
      ],
      "name": "rely",
      "outputs": [],
      "payable": false,
      "stateMutability": "nonpayable",
      "type": "function"
    },
    {
      "constant": false,
      "inputs": [
        {
          "internalType": "address",
          "name": "guy",
          "type": "address"
        }
      ],
      "name": "deny",
      "outputs": [],
      "payable": false,
      "stateMutability": "nonpayable",
      "type": "function"
    },
    {
      "constant": false,
      "inputs": [
        {
          "internalType": "uint16",
          "name": "newTheshold",
          "type": "uint16"
        }
      ],
      "name": "changeThreshold",
      "outputs": [],
      "payable": false,
      "stateMutability": "nonpayable",
      "type": "function"
    },
    {
      "constant": false,
      "inputs": [
        {
          "internalType": "address",
          "name": "ethTokenAddr",
          "type": "address"
        },
        {
          "internalType": "uint256",
          "name": "amount",
          "type": "uint256"
        },
        {
          "internalType": "address",
          "name": "recipient",
          "type": "address"
        }
      ],
      "name": "lockToken",
      "outputs": [],
      "payable": false,
      "stateMutability": "nonpayable",
      "type": "function"
    },
    {
      "constant": false,
      "inputs": [
        {
          "internalType": "address",
          "name": "ethTokenAddr",
          "type": "address"
        },
        {
          "internalType": "address",
          "name": "userAddr",
          "type": "address"
        },
        {
          "internalType": "uint256",
          "name": "amount",
          "type": "uint256"
        },
        {
          "internalType": "address",
          "name": "recipient",
          "type": "address"
        }
      ],
      "name": "lockTokenFor",
      "outputs": [],
      "payable": false,
      "stateMutability": "nonpayable",
      "type": "function"
    },
    {
      "constant": false,
      "inputs": [
        {
          "internalType": "address",
          "name": "ethTokenAddr",
          "type": "address"
        },
        {
          "internalType": "uint256",
          "name": "amount",
          "type": "uint256"
        },
        {
          "internalType": "address",
          "name": "recipient",
          "type": "address"
        },
        {
          "internalType": "bytes32",
          "name": "receiptId",
          "type": "bytes32"
        }
      ],
      "name": "unlockToken",
      "outputs": [],
      "payable": false,
      "stateMutability": "nonpayable",
      "type": "function"
    }
  ],
  "bytecode": "0x608060405234801561001057600080fd5b50600280546001600160a01b03191633178082556001600160a01b0316600090815260016020819052604090912055805461ffff60a01b1916600160a01b179055610f02806100606000396000f3fe608060405234801561001057600080fd5b506004361061009e5760003560e01c80639c52a7f1116100665780639c52a7f114610180578063b574ba86146101a6578063bccc9fcf146101c7578063bf353dbb146101f8578063fe7f61ea146102305761009e565b80630296be63146100a357806309eb2728146100e157806342cde4e81461011757806365fae35e146101365780638da5cb5b1461015c575b600080fd5b6100df600480360360808110156100b957600080fd5b506001600160a01b0381358116916020810135821691604082013591606001351661026a565b005b6100df600480360360608110156100f757600080fd5b506001600160a01b038135811691602081013591604090910135166104f9565b61011f610704565b6040805161ffff9092168252519081900360200190f35b6100df6004803603602081101561014c57600080fd5b50356001600160a01b0316610715565b610164610793565b604080516001600160a01b039092168252519081900360200190f35b6100df6004803603602081101561019657600080fd5b50356001600160a01b03166107a2565b6100df600480360360208110156101bc57600080fd5b503561ffff16610880565b6101e4600480360360208110156101dd57600080fd5b50356108eb565b604080519115158252519081900360200190f35b61021e6004803603602081101561020e57600080fd5b50356001600160a01b0316610900565b60408051918252519081900360200190f35b6100df6004803603608081101561024657600080fd5b506001600160a01b0381358116916020810135916040820135169060600135610912565b33600090815260016020819052604090912054146102cb576040805162461bcd60e51b8152602060048201526019602482015278115d1a13585b9859d95c8bdb9bdd0b585d5d1a1bdc9a5e9959603a1b604482015290519081900360640190fd5b6001600160a01b0381166103105760405162461bcd60e51b8152600401808060200182810382526026815260200180610e7e6026913960400191505060405180910390fd5b60008211610365576040805162461bcd60e51b815260206004820152601c60248201527f4574684d616e616765722f7a65726f20746f6b656e206c6f636b656400000000604482015290519081900360640190fd5b60008490506000816001600160a01b03166370a08231866040518263ffffffff1660e01b815260040180826001600160a01b03166001600160a01b0316815260200191505060206040518083038186803b1580156103c257600080fd5b505afa1580156103d6573d6000803e3d6000fd5b505050506040513d60208110156103ec57600080fd5b5051905061040b6001600160a01b03831686308763ffffffff610aa416565b6000826001600160a01b03166370a08231876040518263ffffffff1660e01b815260040180826001600160a01b03166001600160a01b0316815260200191505060206040518083038186803b15801561046357600080fd5b505afa158015610477573d6000803e3d6000fd5b505050506040513d602081101561048d57600080fd5b5051905060006104a3838363ffffffff610afe16565b604080518281526001600160a01b0388811660208301528251939450808b1693908816927f4c6ab40ee4cfa212a441d32ee2897945b4a52461284f9369e23fdf8faa6cdd69928290030190a35050505050505050565b6001600160a01b03811661053e5760405162461bcd60e51b8152600401808060200182810382526026815260200180610e7e6026913960400191505060405180910390fd5b60008211610593576040805162461bcd60e51b815260206004820152601c60248201527f4574684d616e616765722f7a65726f20746f6b656e206c6f636b656400000000604482015290519081900360640190fd5b604080516370a0823160e01b8152336004820152905184916000916001600160a01b038416916370a08231916024808301926020929190829003018186803b1580156105de57600080fd5b505afa1580156105f2573d6000803e3d6000fd5b505050506040513d602081101561060857600080fd5b505190506106276001600160a01b03831633308763ffffffff610aa416565b604080516370a0823160e01b815233600482015290516000916001600160a01b038516916370a0823191602480820192602092909190829003018186803b15801561067157600080fd5b505afa158015610685573d6000803e3d6000fd5b505050506040513d602081101561069b57600080fd5b5051905060006106b1838363ffffffff610afe16565b604080518281526001600160a01b03888116602083015282519394503393908816927f4c6ab40ee4cfa212a441d32ee2897945b4a52461284f9369e23fdf8faa6cdd69928290030190a350505050505050565b600254600160a01b900461ffff1681565b3360009081526001602081905260409091205414610776576040805162461bcd60e51b8152602060048201526019602482015278115d1a13585b9859d95c8bdb9bdd0b585d5d1a1bdc9a5e9959603a1b604482015290519081900360640190fd5b6001600160a01b0316600090815260016020819052604090912055565b6002546001600160a01b031681565b3360009081526001602081905260409091205414610803576040805162461bcd60e51b8152602060048201526019602482015278115d1a13585b9859d95c8bdb9bdd0b585d5d1a1bdc9a5e9959603a1b604482015290519081900360640190fd5b6002546001600160a01b0382811691161415610866576040805162461bcd60e51b815260206004820181905260248201527f4574684d616e616765722f63616e6e6f742064656e7920746865206f776e6572604482015290519081900360640190fd5b6001600160a01b0316600090815260016020526040812055565b6002546001600160a01b031633146108c95760405162461bcd60e51b815260040180806020018281038252602a815260200180610e54602a913960400191505060405180910390fd5b6002805461ffff909216600160a01b0261ffff60a01b19909216919091179055565b60006020819052908152604090205460ff1681565b60016020526000908152604090205481565b3360009081526001602081905260409091205414610973576040805162461bcd60e51b8152602060048201526019602482015278115d1a13585b9859d95c8bdb9bdd0b585d5d1a1bdc9a5e9959603a1b604482015290519081900360640190fd5b60008181526020819052604090205460ff16156109c15760405162461bcd60e51b815260040180806020018281038252602a815260200180610e2a602a913960400191505060405180910390fd5b6000818152600360205260409020805461ffff198116600161ffff9283160182161791829055600254600160a01b9004811691161015610a0057610a9e565b6000818152602081905260409020805460ff1916600117905583610a346001600160a01b038216848663ffffffff610b4716565b604080516001600160a01b038088168252602082018790528516818301526060810184905290517fb24e65d2501e29a3ce014b0cc2283699c081ad27f10d64f036f96912b6f8943e9181900360800190a1506000818152600360205260409020805461ffff191690555b50505050565b604080516001600160a01b0385811660248301528416604482015260648082018490528251808303909101815260849091019091526020810180516001600160e01b03166323b872dd60e01b179052610a9e908590610b9e565b6000610b4083836040518060400160405280601e81526020017f536166654d6174683a207375627472616374696f6e206f766572666c6f770000815250610d56565b9392505050565b604080516001600160a01b038416602482015260448082018490528251808303909101815260649091019091526020810180516001600160e01b031663a9059cbb60e01b179052610b99908490610b9e565b505050565b610bb0826001600160a01b0316610ded565b610c01576040805162461bcd60e51b815260206004820152601f60248201527f5361666545524332303a2063616c6c20746f206e6f6e2d636f6e747261637400604482015290519081900360640190fd5b60006060836001600160a01b0316836040518082805190602001908083835b60208310610c3f5780518252601f199092019160209182019101610c20565b6001836020036101000a0380198251168184511680821785525050505050509050019150506000604051808303816000865af19150503d8060008114610ca1576040519150601f19603f3d011682016040523d82523d6000602084013e610ca6565b606091505b509150915081610cfd576040805162461bcd60e51b815260206004820181905260248201527f5361666545524332303a206c6f772d6c6576656c2063616c6c206661696c6564604482015290519081900360640190fd5b805115610a9e57808060200190516020811015610d1957600080fd5b5051610a9e5760405162461bcd60e51b815260040180806020018281038252602a815260200180610ea4602a913960400191505060405180910390fd5b60008184841115610de55760405162461bcd60e51b81526004018080602001828103825283818151815260200191508051906020019080838360005b83811015610daa578181015183820152602001610d92565b50505050905090810190601f168015610dd75780820380516001836020036101000a031916815260200191505b509250505060405180910390fd5b505050900390565b6000813f7fc5d2460186f7233c927e7db2dcc703c0e500b653ca82273b7bfad8045d85a470818114801590610e2157508115155b94935050505056fe4574684d616e616765722f546865206275726e206576656e742063616e6e6f74206265207265757365644574684d616e616765722f6f6e6c79206f776e65722063616e206368616e6765207468726573686f6c644574684d616e616765722f726563697069656e742069732061207a65726f20616464726573735361666545524332303a204552433230206f7065726174696f6e20646964206e6f742073756363656564a265627a7a7231582063e425326f69410bfdb3ae4784a9af61e25028001d7e9636687bffb6957b1be164736f6c63430005110032",
  "source": "pragma solidity 0.5.17;\nimport \"@openzeppelin/contracts/math/SafeMath.sol\";\nimport \"@openzeppelin/contracts/token/ERC20/IERC20.sol\";\nimport \"@openzeppelin/contracts/token/ERC20/SafeERC20.sol\";\n\ncontract EthManager {\n    using SafeMath for uint256;\n    using SafeERC20 for IERC20;\n\n    mapping(bytes32 => bool) public usedEvents_;\n\n    event Locked(\n        address indexed token,\n        address indexed sender,\n        uint256 amount,\n        address recipient\n    );\n\n    event Unlocked(\n        address ethToken,\n        uint256 amount,\n        address recipient,\n        bytes32 receiptId\n    );\n\n    mapping(address => uint256) public wards;\n\n    function rely(address guy) external auth {\n        wards[guy] = 1;\n    }\n\n    function deny(address guy) external auth {\n        require(guy != owner, \"EthManager/cannot deny the owner\");\n        wards[guy] = 0;\n    }\n\n    modifier auth {\n        require(wards[msg.sender] == 1, \"EthManager/not-authorized\");\n        _;\n    }\n\n    address public owner;\n\n    uint16 public threshold;\n    mapping(bytes32 => uint16) confirmations;\n\n    /**\n     * @dev constructor\n     */\n    constructor() public {\n        owner = msg.sender;\n        wards[owner] = 1;\n        threshold = 1;\n    }\n\n    /**\n     * @dev change threshold requirement\n     * @param newTheshold new threshold requirement\n     */\n    function changeThreshold(uint16 newTheshold) public {\n        require(\n            msg.sender == owner,\n            \"EthManager/only owner can change threshold\"\n        );\n        threshold = newTheshold;\n    }\n\n    /**\n     * @dev lock tokens to be minted on harmony chain\n     * @param ethTokenAddr is the ethereum token contract address\n     * @param amount amount of tokens to lock\n     * @param recipient recipient address on the harmony chain\n     */\n    function lockToken(\n        address ethTokenAddr,\n        uint256 amount,\n        address recipient\n    ) public {\n        require(\n            recipient != address(0),\n            \"EthManager/recipient is a zero address\"\n        );\n        require(amount > 0, \"EthManager/zero token locked\");\n        IERC20 ethToken = IERC20(ethTokenAddr);\n        uint256 _balanceBefore = ethToken.balanceOf(msg.sender);\n        ethToken.safeTransferFrom(msg.sender, address(this), amount);\n        uint256 _balanceAfter = ethToken.balanceOf(msg.sender);\n        uint256 _actualAmount = _balanceBefore.sub(_balanceAfter);\n        emit Locked(address(ethToken), msg.sender, _actualAmount, recipient);\n    }\n\n    /**\n     * @dev lock tokens for a user address to be minted on harmony chain\n     * @param ethTokenAddr is the ethereum token contract address\n     * @param userAddr is token holder address\n     * @param amount amount of tokens to lock\n     * @param recipient recipient address on the harmony chain\n     */\n    function lockTokenFor(\n        address ethTokenAddr,\n        address userAddr,\n        uint256 amount,\n        address recipient\n    ) public auth {\n        require(\n            recipient != address(0),\n            \"EthManager/recipient is a zero address\"\n        );\n        require(amount > 0, \"EthManager/zero token locked\");\n        IERC20 ethToken = IERC20(ethTokenAddr);\n        uint256 _balanceBefore = ethToken.balanceOf(userAddr);\n        ethToken.safeTransferFrom(userAddr, address(this), amount);\n        uint256 _balanceAfter = ethToken.balanceOf(userAddr);\n        uint256 _actualAmount = _balanceBefore.sub(_balanceAfter);\n        emit Locked(address(ethToken), userAddr, _actualAmount, recipient);\n    }\n\n    /**\n     * @dev unlock tokens after burning them on harmony chain\n     * @param ethTokenAddr is the ethereum token contract address\n     * @param amount amount of unlock tokens\n     * @param recipient recipient of the unlock tokens\n     * @param receiptId transaction hash of the burn event on harmony chain\n     */\n    function unlockToken(\n        address ethTokenAddr,\n        uint256 amount,\n        address recipient,\n        bytes32 receiptId\n    ) public auth {\n        require(\n            !usedEvents_[receiptId],\n            \"EthManager/The burn event cannot be reused\"\n        );\n        confirmations[receiptId] = confirmations[receiptId] + 1;\n        if (confirmations[receiptId] < threshold) {\n            return;\n        }\n        IERC20 ethToken = IERC20(ethTokenAddr);\n        usedEvents_[receiptId] = true;\n        ethToken.safeTransfer(recipient, amount);\n        emit Unlocked(ethTokenAddr, amount, recipient, receiptId);\n        // delete confirmations entry for receiptId\n        delete confirmations[receiptId];\n    }\n}\n",
  "sourcePath": "/Users/yuriy/pro5/contract2/contracts/erc20/EthManager.sol",
  "compiler": {
    "name": "solc",
    "version": "0.5.17+commit.d19bba13.Emscripten.clang"
  },
  "schemaVersion": "3.2.0",
  "updatedAt": "2020-09-19T16:56:08.438Z",
  "devdoc": {
    "methods": {
      "changeThreshold(uint16)": {
        "details": "change threshold requirement",
        "params": {
          "newTheshold": "new threshold requirement"
        }
      },
      "constructor": {
        "details": "constructor"
      },
      "lockToken(address,uint256,address)": {
        "details": "lock tokens to be minted on harmony chain",
        "params": {
          "amount": "amount of tokens to lock",
          "ethTokenAddr": "is the ethereum token contract address",
          "recipient": "recipient address on the harmony chain"
        }
      },
      "lockTokenFor(address,address,uint256,address)": {
        "details": "lock tokens for a user address to be minted on harmony chain",
        "params": {
          "amount": "amount of tokens to lock",
          "ethTokenAddr": "is the ethereum token contract address",
          "recipient": "recipient address on the harmony chain",
          "userAddr": "is token holder address"
        }
      },
      "unlockToken(address,uint256,address,bytes32)": {
        "details": "unlock tokens after burning them on harmony chain",
        "params": {
          "amount": "amount of unlock tokens",
          "ethTokenAddr": "is the ethereum token contract address",
          "receiptId": "transaction hash of the burn event on harmony chain",
          "recipient": "recipient of the unlock tokens"
        }
      }
    }
  },
  "userdoc": {
    "methods": {}
  }
}