{
  "contractName": "HmyManager",
  "abi": [
    {
      "inputs": [],
      "payable": false,
      "stateMutability": "nonpayable",
      "type": "constructor"
    },
    {
      "anonymous": false,
      "inputs": [
        {
          "indexed": true,
          "internalType": "address",
          "name": "token",
          "type": "address"
        },
        {
          "indexed": true,
          "internalType": "address",
          "name": "sender",
          "type": "address"
        },
        {
          "indexed": false,
          "internalType": "uint256",
          "name": "amount",
          "type": "uint256"
        },
        {
          "indexed": false,
          "internalType": "address",
          "name": "recipient",
          "type": "address"
        }
      ],
      "name": "Burned",
      "type": "event"
    },
    {
      "anonymous": false,
      "inputs": [
        {
          "indexed": false,
          "internalType": "address",
          "name": "oneToken",
          "type": "address"
        },
        {
          "indexed": false,
          "internalType": "uint256",
          "name": "amount",
          "type": "uint256"
        },
        {
          "indexed": false,
          "internalType": "address",
          "name": "recipient",
          "type": "address"
        },
        {
          "indexed": false,
          "internalType": "bytes32",
          "name": "receiptId",
          "type": "bytes32"
        }
      ],
      "name": "Minted",
      "type": "event"
    },
    {
      "constant": true,
      "inputs": [
        {
          "internalType": "address",
          "name": "",
          "type": "address"
        }
      ],
      "name": "mappings",
      "outputs": [
        {
          "internalType": "address",
          "name": "",
          "type": "address"
        }
      ],
      "payable": false,
      "stateMutability": "view",
      "type": "function"
    },
    {
      "constant": true,
      "inputs": [],
      "name": "owner",
      "outputs": [
        {
          "internalType": "address",
          "name": "",
          "type": "address"
        }
      ],
      "payable": false,
      "stateMutability": "view",
      "type": "function"
    },
    {
      "constant": true,
      "inputs": [],
      "name": "threshold",
      "outputs": [
        {
          "internalType": "uint16",
          "name": "",
          "type": "uint16"
        }
      ],
      "payable": false,
      "stateMutability": "view",
      "type": "function"
    },
    {
      "constant": true,
      "inputs": [
        {
          "internalType": "bytes32",
          "name": "",
          "type": "bytes32"
        }
      ],
      "name": "usedEvents_",
      "outputs": [
        {
          "internalType": "bool",
          "name": "",
          "type": "bool"
        }
      ],
      "payable": false,
      "stateMutability": "view",
      "type": "function"
    },
    {
      "constant": true,
      "inputs": [
        {
          "internalType": "address",
          "name": "",
          "type": "address"
        }
      ],
      "name": "wards",
      "outputs": [
        {
          "internalType": "uint256",
          "name": "",
          "type": "uint256"
        }
      ],
      "payable": false,
      "stateMutability": "view",
      "type": "function"
    },
    {
      "constant": false,
      "inputs": [
        {
          "internalType": "address",
          "name": "guy",
          "type": "address"
        }
      ],
      "name": "rely",
      "outputs": [],
      "payable": false,
      "stateMutability": "nonpayable",
      "type": "function"
    },
    {
      "constant": false,
      "inputs": [
        {
          "internalType": "address",
          "name": "guy",
          "type": "address"
        }
      ],
      "name": "deny",
      "outputs": [],
      "payable": false,
      "stateMutability": "nonpayable",
      "type": "function"
    },
    {
      "constant": false,
      "inputs": [
        {
          "internalType": "uint16",
          "name": "newTheshold",
          "type": "uint16"
        }
      ],
      "name": "changeThreshold",
      "outputs": [],
      "payable": false,
      "stateMutability": "nonpayable",
      "type": "function"
    },
    {
      "constant": false,
      "inputs": [
        {
          "internalType": "address",
          "name": "tokenManager",
          "type": "address"
        },
        {
          "internalType": "address",
          "name": "ethTokenAddr",
          "type": "address"
        },
        {
          "internalType": "string",
          "name": "name",
          "type": "string"
        },
        {
          "internalType": "string",
          "name": "symbol",
          "type": "string"
        },
        {
          "internalType": "uint8",
          "name": "decimals",
          "type": "uint8"
        }
      ],
      "name": "addToken",
      "outputs": [],
      "payable": false,
      "stateMutability": "nonpayable",
      "type": "function"
    },
    {
      "constant": false,
      "inputs": [
        {
          "internalType": "address",
          "name": "tokenManager",
          "type": "address"
        },
        {
          "internalType": "address",
          "name": "ethTokenAddr",
          "type": "address"
        }
      ],
      "name": "removeToken",
      "outputs": [],
      "payable": false,
      "stateMutability": "nonpayable",
      "type": "function"
    },
    {
      "constant": false,
      "inputs": [
        {
          "internalType": "address",
          "name": "oneToken",
          "type": "address"
        },
        {
          "internalType": "uint256",
          "name": "amount",
          "type": "uint256"
        },
        {
          "internalType": "address",
          "name": "recipient",
          "type": "address"
        }
      ],
      "name": "burnToken",
      "outputs": [],
      "payable": false,
      "stateMutability": "nonpayable",
      "type": "function"
    },
    {
      "constant": false,
      "inputs": [
        {
          "internalType": "address",
          "name": "oneToken",
          "type": "address"
        },
        {
          "internalType": "uint256",
          "name": "amount",
          "type": "uint256"
        },
        {
          "internalType": "address",
          "name": "recipient",
          "type": "address"
        },
        {
          "internalType": "bytes32",
          "name": "receiptId",
          "type": "bytes32"
        }
      ],
      "name": "mintToken",
      "outputs": [],
      "payable": false,
      "stateMutability": "nonpayable",
      "type": "function"
    }
  ],
  "bytecode": "0x608060405234801561001057600080fd5b50600280546001600160a01b0319163317908190556001600160a01b031660009081526001602081905260409091208190556004805461ffff19169091179055610b2c8061005f6000396000f3fe608060405234801561001057600080fd5b50600436106100b45760003560e01c8063a0e3d1a011610071578063a0e3d1a01461019e578063b574ba86146101d4578063bccc9fcf146101f5578063bf353dbb14610226578063e8162bda1461025e578063f633be1e146103a9576100b4565b806341102619146100b957806342cde4e8146100fb57806365fae35e1461011a5780638da5cb5b146101425780639735b0e31461014a5780639c52a7f114610178575b600080fd5b6100df600480360360208110156100cf57600080fd5b50356001600160a01b03166103e3565b604080516001600160a01b039092168252519081900360200190f35b6101036103fe565b6040805161ffff9092168252519081900360200190f35b6101406004803603602081101561013057600080fd5b50356001600160a01b0316610408565b005b6100df610486565b6101406004803603604081101561016057600080fd5b506001600160a01b0381358116916020013516610495565b6101406004803603602081101561018e57600080fd5b50356001600160a01b0316610500565b610140600480360360608110156101b457600080fd5b506001600160a01b038135811691602081013591604090910135166105de565b610140600480360360208110156101ea57600080fd5b503561ffff16610693565b6102126004803603602081101561020b57600080fd5b50356106f4565b604080519115158252519081900360200190f35b61024c6004803603602081101561023c57600080fd5b50356001600160a01b0316610709565b60408051918252519081900360200190f35b610140600480360360a081101561027457600080fd5b6001600160a01b0382358116926020810135909116918101906060810160408201356401000000008111156102a857600080fd5b8201836020820111156102ba57600080fd5b803590602001918460018302840111640100000000831117156102dc57600080fd5b91908080601f016020809104026020016040519081016040528093929190818152602001838380828437600092019190915250929594936020810193503591505064010000000081111561032f57600080fd5b82018360208201111561034157600080fd5b8035906020019184600183028401116401000000008311171561036357600080fd5b91908080601f0160208091040260200160405190810160405280939291908181526020018383808284376000920191909152509295505050903560ff16915061071b9050565b610140600480360360808110156103bf57600080fd5b506001600160a01b03813581169160208101359160408201351690606001356108b7565b6003602052600090815260409020546001600160a01b031681565b60045461ffff1681565b3360009081526001602081905260409091205414610469576040805162461bcd60e51b8152602060048201526019602482015278121b5e53585b9859d95c8bdb9bdd0b585d5d1a1bdc9a5e9959603a1b604482015290519081900360640190fd5b6001600160a01b0316600090815260016020819052604090912055565b6002546001600160a01b031681565b604080516309dd78f360e11b81526001600160a01b0383811660048301526000602483018190529251908516926313baf1e6926044808201939182900301818387803b1580156104e457600080fd5b505af11580156104f8573d6000803e3d6000fd5b505050505050565b3360009081526001602081905260409091205414610561576040805162461bcd60e51b8152602060048201526019602482015278121b5e53585b9859d95c8bdb9bdd0b585d5d1a1bdc9a5e9959603a1b604482015290519081900360640190fd5b6002546001600160a01b03828116911614156105c4576040805162461bcd60e51b815260206004820181905260248201527f486d794d616e616765722f63616e6e6f742064656e7920746865206f776e6572604482015290519081900360640190fd5b6001600160a01b0316600090815260016020526040812055565b6040805163079cc67960e41b81523360048201526024810184905290516001600160a01b038516916379cc679091604480830192600092919082900301818387803b15801561062c57600080fd5b505af1158015610640573d6000803e3d6000fd5b5050604080518581526001600160a01b038581166020830152825133955090881693507f47b4128ad231bee46bdb1f8614450b5ffe6eb96340e87519a0c3a8b91ee714ec929181900390910190a3505050565b6002546001600160a01b031633146106dc5760405162461bcd60e51b815260040180806020018281038252602a815260200180610aa4602a913960400191505060405180910390fd5b6004805461ffff191661ffff92909216919091179055565b60006020819052908152604090205460ff1681565b60016020526000908152604090205481565b6000856001600160a01b0316638e404e9c868686866040518563ffffffff1660e01b815260040180856001600160a01b03166001600160a01b0316815260200180602001806020018460ff1660ff168152602001838103835286818151815260200191508051906020019080838360005b838110156107a457818101518382015260200161078c565b50505050905090810190601f1680156107d15780820380516001836020036101000a031916815260200191505b50838103825285518152855160209182019187019080838360005b838110156108045781810151838201526020016107ec565b50505050905090810190601f1680156108315780820380516001836020036101000a031916815260200191505b509650505050505050602060405180830381600087803b15801561085457600080fd5b505af1158015610868573d6000803e3d6000fd5b505050506040513d602081101561087e57600080fd5b50516001600160a01b03958616600090815260036020526040902080546001600160a01b03191696909116959095179094555050505050565b3360009081526001602081905260409091205414610918576040805162461bcd60e51b8152602060048201526019602482015278121b5e53585b9859d95c8bdb9bdd0b585d5d1a1bdc9a5e9959603a1b604482015290519081900360640190fd5b60008181526020819052604090205460ff16156109665760405162461bcd60e51b815260040180806020018281038252602a815260200180610ace602a913960400191505060405180910390fd5b6000818152600560205260409020805461ffff198116600161ffff928316018216179182905560045481169116101561099e57610a9d565b600081815260208181526040808320805460ff1916600117905580516340c10f1960e01b81526001600160a01b038681166004830152602482018890529151918816936340c10f199360448084019491939192918390030190829087803b158015610a0857600080fd5b505af1158015610a1c573d6000803e3d6000fd5b505050506040513d6020811015610a3257600080fd5b5050604080516001600160a01b038087168252602082018690528416818301526060810183905290517ffdc0a3af821280dd73e4f6683e16c5afc31a629d07af623f9a4689d6855938869181900360800190a16000818152600560205260409020805461ffff191690555b5050505056fe486d794d616e616765722f6f6e6c79206f776e65722063616e206368616e6765207468726573686f6c64486d794d616e616765722f546865206c6f636b206576656e742063616e6e6f7420626520726575736564a265627a7a72315820643aaea78caa514fab06aa66bf50362555dfbf753a2f70d65d08c6b7573f050f64736f6c63430005110032",
  "source": "pragma solidity 0.5.17;\nimport \"@openzeppelin/contracts/token/ERC20/IERC20.sol\";\nimport \"../lib/TokenManager.sol\";\n\ninterface MintableToken {\n    function mint(address beneficiary, uint256 amount) external returns (bool);\n}\n\ninterface BurnableToken {\n    function burnFrom(address account, uint256 amount) external;\n}\n\ncontract HmyManager {\n    mapping(bytes32 => bool) public usedEvents_;\n\n    event Burned(\n        address indexed token,\n        address indexed sender,\n        uint256 amount,\n        address recipient\n    );\n\n    event Minted(\n        address oneToken,\n        uint256 amount,\n        address recipient,\n        bytes32 receiptId\n    );\n\n    mapping(address => uint256) public wards;\n\n    function rely(address guy) external auth {\n        wards[guy] = 1;\n    }\n\n    function deny(address guy) external auth {\n        require(guy != owner, \"HmyManager/cannot deny the owner\");\n        wards[guy] = 0;\n    }\n\n    modifier auth {\n        require(wards[msg.sender] == 1, \"HmyManager/not-authorized\");\n        _;\n    }\n\n    address public owner;\n\n    mapping(address => address) public mappings;\n\n    uint16 public threshold;\n    mapping(bytes32 => uint16) confirmations;\n\n    /**\n     * @dev constructor\n     */\n    constructor() public {\n        owner = msg.sender;\n        wards[owner] = 1;\n        threshold = 1;\n    }\n\n    /**\n     * @dev change threshold requirement\n     * @param newTheshold new threshold requirement\n     */\n    function changeThreshold(uint16 newTheshold) public {\n        require(\n            msg.sender == owner,\n            \"HmyManager/only owner can change threshold\"\n        );\n        threshold = newTheshold;\n    }\n\n    /**\n     * @dev map an ethereum token to harmony\n     * @param tokenManager address to token manager\n     * @param ethTokenAddr ethereum token address to map\n     * @param name of the ethereum token\n     * @param symbol of the ethereum token\n     * @param decimals of the ethereum token\n     */\n    function addToken(\n        address tokenManager,\n        address ethTokenAddr,\n        string memory name,\n        string memory symbol,\n        uint8 decimals\n    ) public {\n        address oneTokenAddr = TokenManager(tokenManager).addToken(\n            ethTokenAddr,\n            name,\n            symbol,\n            decimals\n        );\n        mappings[ethTokenAddr] = oneTokenAddr;\n    }\n\n    /**\n     * @dev deregister token mapping in the token manager\n     * @param tokenManager address to token manager\n     * @param ethTokenAddr address to remove token\n     */\n    function removeToken(address tokenManager, address ethTokenAddr) public {\n        TokenManager(tokenManager).removeToken(ethTokenAddr, 0);\n    }\n\n    /**\n     * @dev burns tokens on harmony to be unlocked on ethereum\n     * @param oneToken harmony token address\n     * @param amount amount of tokens to burn\n     * @param recipient recipient of the unlock tokens on ethereum\n     */\n    function burnToken(\n        address oneToken,\n        uint256 amount,\n        address recipient\n    ) public {\n        BurnableToken(oneToken).burnFrom(msg.sender, amount);\n        emit Burned(oneToken, msg.sender, amount, recipient);\n    }\n\n    /**\n     * @dev mints tokens corresponding to the tokens locked in the ethereum chain\n     * @param oneToken is the token address for minting\n     * @param amount amount of tokens for minting\n     * @param recipient recipient of the minted tokens (harmony address)\n     * @param receiptId transaction hash of the lock event on ethereum chain\n     */\n    function mintToken(\n        address oneToken,\n        uint256 amount,\n        address recipient,\n        bytes32 receiptId\n    ) public auth {\n        require(\n            !usedEvents_[receiptId],\n            \"HmyManager/The lock event cannot be reused\"\n        );\n        confirmations[receiptId] = confirmations[receiptId] + 1;\n        if (confirmations[receiptId] < threshold) {\n            return;\n        }\n        usedEvents_[receiptId] = true;\n        MintableToken(oneToken).mint(recipient, amount);\n        emit Minted(oneToken, amount, recipient, receiptId);\n        // delete confirmations entry for receiptId\n        delete confirmations[receiptId];\n    }\n}\n",
  "sourcePath": "/Users/yuriy/pro5/contract2/contracts/erc20/HmyManager.sol",
  "compiler": {
    "name": "solc",
    "version": "0.5.17+commit.d19bba13.Emscripten.clang"
  },
  "schemaVersion": "3.2.0",
  "updatedAt": "2020-09-19T16:56:08.449Z",
  "devdoc": {
    "methods": {
      "addToken(address,address,string,string,uint8)": {
        "details": "map an ethereum token to harmony",
        "params": {
          "decimals": "of the ethereum token",
          "ethTokenAddr": "ethereum token address to map",
          "name": "of the ethereum token",
          "symbol": "of the ethereum token",
          "tokenManager": "address to token manager"
        }
      },
      "burnToken(address,uint256,address)": {
        "details": "burns tokens on harmony to be unlocked on ethereum",
        "params": {
          "amount": "amount of tokens to burn",
          "oneToken": "harmony token address",
          "recipient": "recipient of the unlock tokens on ethereum"
        }
      },
      "changeThreshold(uint16)": {
        "details": "change threshold requirement",
        "params": {
          "newTheshold": "new threshold requirement"
        }
      },
      "constructor": {
        "details": "constructor"
      },
      "mintToken(address,uint256,address,bytes32)": {
        "details": "mints tokens corresponding to the tokens locked in the ethereum chain",
        "params": {
          "amount": "amount of tokens for minting",
          "oneToken": "is the token address for minting",
          "receiptId": "transaction hash of the lock event on ethereum chain",
          "recipient": "recipient of the minted tokens (harmony address)"
        }
      },
      "removeToken(address,address)": {
        "details": "deregister token mapping in the token manager",
        "params": {
          "ethTokenAddr": "address to remove token",
          "tokenManager": "address to token manager"
        }
      }
    }
  },
  "userdoc": {
    "methods": {}
  }
}