{
  "contractName": "LINKEthManager",
  "abi": [
    {
      "inputs": [
        {
          "internalType": "contract ILINK",
          "name": "link",
          "type": "address"
        }
      ],
      "payable": false,
      "stateMutability": "nonpayable",
      "type": "constructor"
    },
    {
      "anonymous": false,
      "inputs": [
        {
          "indexed": true,
          "internalType": "address",
          "name": "token",
          "type": "address"
        },
        {
          "indexed": true,
          "internalType": "address",
          "name": "sender",
          "type": "address"
        },
        {
          "indexed": false,
          "internalType": "uint256",
          "name": "amount",
          "type": "uint256"
        },
        {
          "indexed": false,
          "internalType": "address",
          "name": "recipient",
          "type": "address"
        }
      ],
      "name": "Locked",
      "type": "event"
    },
    {
      "anonymous": false,
      "inputs": [
        {
          "indexed": false,
          "internalType": "address",
          "name": "ethToken",
          "type": "address"
        },
        {
          "indexed": false,
          "internalType": "uint256",
          "name": "amount",
          "type": "uint256"
        },
        {
          "indexed": false,
          "internalType": "address",
          "name": "recipient",
          "type": "address"
        },
        {
          "indexed": false,
          "internalType": "bytes32",
          "name": "receiptId",
          "type": "bytes32"
        }
      ],
      "name": "Unlocked",
      "type": "event"
    },
    {
      "constant": true,
      "inputs": [],
      "name": "link_",
      "outputs": [
        {
          "internalType": "contract ILINK",
          "name": "",
          "type": "address"
        }
      ],
      "payable": false,
      "stateMutability": "view",
      "type": "function"
    },
    {
      "constant": true,
      "inputs": [],
      "name": "owner",
      "outputs": [
        {
          "internalType": "address",
          "name": "",
          "type": "address"
        }
      ],
      "payable": false,
      "stateMutability": "view",
      "type": "function"
    },
    {
      "constant": true,
      "inputs": [],
      "name": "threshold",
      "outputs": [
        {
          "internalType": "uint16",
          "name": "",
          "type": "uint16"
        }
      ],
      "payable": false,
      "stateMutability": "view",
      "type": "function"
    },
    {
      "constant": true,
      "inputs": [
        {
          "internalType": "bytes32",
          "name": "",
          "type": "bytes32"
        }
      ],
      "name": "usedEvents_",
      "outputs": [
        {
          "internalType": "bool",
          "name": "",
          "type": "bool"
        }
      ],
      "payable": false,
      "stateMutability": "view",
      "type": "function"
    },
    {
      "constant": true,
      "inputs": [
        {
          "internalType": "address",
          "name": "",
          "type": "address"
        }
      ],
      "name": "wards",
      "outputs": [
        {
          "internalType": "uint256",
          "name": "",
          "type": "uint256"
        }
      ],
      "payable": false,
      "stateMutability": "view",
      "type": "function"
    },
    {
      "constant": false,
      "inputs": [
        {
          "internalType": "address",
          "name": "guy",
          "type": "address"
        }
      ],
      "name": "rely",
      "outputs": [],
      "payable": false,
      "stateMutability": "nonpayable",
      "type": "function"
    },
    {
      "constant": false,
      "inputs": [
        {
          "internalType": "address",
          "name": "guy",
          "type": "address"
        }
      ],
      "name": "deny",
      "outputs": [],
      "payable": false,
      "stateMutability": "nonpayable",
      "type": "function"
    },
    {
      "constant": false,
      "inputs": [
        {
          "internalType": "uint16",
          "name": "newTheshold",
          "type": "uint16"
        }
      ],
      "name": "changeThreshold",
      "outputs": [],
      "payable": false,
      "stateMutability": "nonpayable",
      "type": "function"
    },
    {
      "constant": false,
      "inputs": [
        {
          "internalType": "uint256",
          "name": "amount",
          "type": "uint256"
        },
        {
          "internalType": "address",
          "name": "recipient",
          "type": "address"
        }
      ],
      "name": "lockToken",
      "outputs": [],
      "payable": false,
      "stateMutability": "nonpayable",
      "type": "function"
    },
    {
      "constant": false,
      "inputs": [
        {
          "internalType": "address",
          "name": "userAddr",
          "type": "address"
        },
        {
          "internalType": "uint256",
          "name": "amount",
          "type": "uint256"
        },
        {
          "internalType": "address",
          "name": "recipient",
          "type": "address"
        }
      ],
      "name": "lockTokenFor",
      "outputs": [],
      "payable": false,
      "stateMutability": "nonpayable",
      "type": "function"
    },
    {
      "constant": false,
      "inputs": [
        {
          "internalType": "uint256",
          "name": "amount",
          "type": "uint256"
        },
        {
          "internalType": "address",
          "name": "recipient",
          "type": "address"
        },
        {
          "internalType": "bytes32",
          "name": "receiptId",
          "type": "bytes32"
        }
      ],
      "name": "unlockToken",
      "outputs": [],
      "payable": false,
      "stateMutability": "nonpayable",
      "type": "function"
    }
  ],
  "bytecode": "0x608060405234801561001057600080fd5b50604051610eeb380380610eeb8339818101604052602081101561003357600080fd5b5051600380546001600160a01b031990811633178083556001600160a01b03908116600090815260026020526040812060019055805491909416911617909155805461ffff60a01b1916600160a01b179055610e57806100946000396000f3fe608060405234801561001057600080fd5b50600436106100a95760003560e01c80639c52a7f1116100715780639c52a7f114610181578063b574ba86146101a7578063bccc9fcf146101c8578063bf353dbb146101f9578063cec1460b14610231578063d6d34ad61461025d576100a9565b806342cde4e8146100ae5780635ed74114146100cd57806365fae35e14610101578063713d9aca146101275780638da5cb5b1461015d575b600080fd5b6100b6610265565b6040805161ffff9092168252519081900360200190f35b6100ff600480360360608110156100e357600080fd5b508035906001600160a01b036020820135169060400135610276565b005b6100ff6004803603602081101561011757600080fd5b50356001600160a01b03166104c0565b6100ff6004803603606081101561013d57600080fd5b506001600160a01b0381358116916020810135916040909101351661053d565b610165610870565b604080516001600160a01b039092168252519081900360200190f35b6100ff6004803603602081101561019757600080fd5b50356001600160a01b031661087f565b6100ff600480360360208110156101bd57600080fd5b503561ffff1661095c565b6101e5600480360360208110156101de57600080fd5b50356109c7565b604080519115158252519081900360200190f35b61021f6004803603602081101561020f57600080fd5b50356001600160a01b03166109dc565b60408051918252519081900360200190f35b6100ff6004803603604081101561024757600080fd5b50803590602001356001600160a01b03166109ee565b610165610cb9565b600354600160a01b900461ffff1681565b336000908152600260205260409020546001146102d6576040805162461bcd60e51b8152602060048201526019602482015278115d1a13585b9859d95c8bdb9bdd0b585d5d1a1bdc9a5e9959603a1b604482015290519081900360640190fd5b60008181526001602052604090205460ff16156103245760405162461bcd60e51b815260040180806020018281038252602a815260200180610da9602a913960400191505060405180910390fd5b6000818152600460205260409020805461ffff198116600161ffff9283160182161791829055600354600160a01b9004811691161015610363576104bb565b6000818152600160208181526040808420805460ff19169093179092558254825163a9059cbb60e01b81526001600160a01b038781166004830152602482018990529351939091169363a9059cbb93604480840194939192918390030190829087803b1580156103d257600080fd5b505af11580156103e6573d6000803e3d6000fd5b505050506040513d60208110156103fc57600080fd5b505161044f576040805162461bcd60e51b815260206004820152601860248201527f4574684d616e616765722f756e6c6f636b206661696c65640000000000000000604482015290519081900360640190fd5b600054604080516001600160a01b039283168152602081018690529184168282015260608201839052517fb24e65d2501e29a3ce014b0cc2283699c081ad27f10d64f036f96912b6f8943e9181900360800190a16000818152600460205260409020805461ffff191690555b505050565b33600090815260026020526040902054600114610520576040805162461bcd60e51b8152602060048201526019602482015278115d1a13585b9859d95c8bdb9bdd0b585d5d1a1bdc9a5e9959603a1b604482015290519081900360640190fd5b6001600160a01b0316600090815260026020526040902060019055565b3360009081526002602052604090205460011461059d576040805162461bcd60e51b8152602060048201526019602482015278115d1a13585b9859d95c8bdb9bdd0b585d5d1a1bdc9a5e9959603a1b604482015290519081900360640190fd5b6001600160a01b0381166105e25760405162461bcd60e51b8152600401808060200182810382526026815260200180610dfd6026913960400191505060405180910390fd5b60008211610637576040805162461bcd60e51b815260206004820152601c60248201527f4574684d616e616765722f7a65726f20746f6b656e206c6f636b656400000000604482015290519081900360640190fd5b60008054604080516370a0823160e01b81526001600160a01b038781166004830152915191909216916370a0823191602480830192602092919082900301818787803b15801561068657600080fd5b505af115801561069a573d6000803e3d6000fd5b505050506040513d60208110156106b057600080fd5b505160008054604080516323b872dd60e01b81526001600160a01b0389811660048301523060248301526044820189905291519495509116926323b872dd92606480840193602093929083900390910190829087803b15801561071257600080fd5b505af1158015610726573d6000803e3d6000fd5b505050506040513d602081101561073c57600080fd5b5051610788576040805162461bcd60e51b8152602060048201526016602482015275115d1a13585b9859d95c8bdb1bd8dac819985a5b195960521b604482015290519081900360640190fd5b60008054604080516370a0823160e01b81526001600160a01b038881166004830152915191909216916370a0823191602480830192602092919082900301818787803b1580156107d757600080fd5b505af11580156107eb573d6000803e3d6000fd5b505050506040513d602081101561080157600080fd5b505190506000610817838363ffffffff610cc816565b600054604080518381526001600160a01b0388811660208301528251949550808b16949316927f4c6ab40ee4cfa212a441d32ee2897945b4a52461284f9369e23fdf8faa6cdd69929181900390910190a3505050505050565b6003546001600160a01b031681565b336000908152600260205260409020546001146108df576040805162461bcd60e51b8152602060048201526019602482015278115d1a13585b9859d95c8bdb9bdd0b585d5d1a1bdc9a5e9959603a1b604482015290519081900360640190fd5b6003546001600160a01b0382811691161415610942576040805162461bcd60e51b815260206004820181905260248201527f4574684d616e616765722f63616e6e6f742064656e7920746865206f776e6572604482015290519081900360640190fd5b6001600160a01b0316600090815260026020526040812055565b6003546001600160a01b031633146109a55760405162461bcd60e51b815260040180806020018281038252602a815260200180610dd3602a913960400191505060405180910390fd5b6003805461ffff909216600160a01b0261ffff60a01b19909216919091179055565b60016020526000908152604090205460ff1681565b60026020526000908152604090205481565b6001600160a01b038116610a335760405162461bcd60e51b8152600401808060200182810382526026815260200180610dfd6026913960400191505060405180910390fd5b60008211610a88576040805162461bcd60e51b815260206004820152601c60248201527f4574684d616e616765722f7a65726f20746f6b656e206c6f636b656400000000604482015290519081900360640190fd5b60008054604080516370a0823160e01b815233600482015290516001600160a01b03909216916370a082319160248082019260209290919082900301818787803b158015610ad557600080fd5b505af1158015610ae9573d6000803e3d6000fd5b505050506040513d6020811015610aff57600080fd5b505160008054604080516323b872dd60e01b81523360048201523060248201526044810188905290519394506001600160a01b03909116926323b872dd92606480840193602093929083900390910190829087803b158015610b6057600080fd5b505af1158015610b74573d6000803e3d6000fd5b505050506040513d6020811015610b8a57600080fd5b5051610bd6576040805162461bcd60e51b8152602060048201526016602482015275115d1a13585b9859d95c8bdb1bd8dac819985a5b195960521b604482015290519081900360640190fd5b60008054604080516370a0823160e01b815233600482015290516001600160a01b03909216916370a082319160248082019260209290919082900301818787803b158015610c2357600080fd5b505af1158015610c37573d6000803e3d6000fd5b505050506040513d6020811015610c4d57600080fd5b505190506000610c63838363ffffffff610cc816565b600054604080518381526001600160a01b038881166020830152825194955033949316927f4c6ab40ee4cfa212a441d32ee2897945b4a52461284f9369e23fdf8faa6cdd69929181900390910190a35050505050565b6000546001600160a01b031681565b6000610d0a83836040518060400160405280601e81526020017f536166654d6174683a207375627472616374696f6e206f766572666c6f770000815250610d11565b9392505050565b60008184841115610da05760405162461bcd60e51b81526004018080602001828103825283818151815260200191508051906020019080838360005b83811015610d65578181015183820152602001610d4d565b50505050905090810190601f168015610d925780820380516001836020036101000a031916815260200191505b509250505060405180910390fd5b50505090039056fe4574684d616e616765722f546865206275726e206576656e742063616e6e6f74206265207265757365644574684d616e616765722f6f6e6c79206f776e65722063616e206368616e6765207468726573686f6c644574684d616e616765722f726563697069656e742069732061207a65726f2061646472657373a265627a7a7231582060d5e1b26645fac5ef79a40b172db045282aec3752f72781ebef99dac713d38d64736f6c63430005110032",
  "source": "pragma solidity 0.5.17;\n\nimport \"./ILINK.sol\";\nimport \"@openzeppelin/contracts/math/SafeMath.sol\";\n\ncontract LINKEthManager {\n    using SafeMath for uint256;\n\n    ILINK public link_;\n\n    mapping(bytes32 => bool) public usedEvents_;\n\n    event Locked(\n        address indexed token,\n        address indexed sender,\n        uint256 amount,\n        address recipient\n    );\n\n    event Unlocked(\n        address ethToken,\n        uint256 amount,\n        address recipient,\n        bytes32 receiptId\n    );\n\n    mapping(address => uint256) public wards;\n\n    function rely(address guy) external auth {\n        wards[guy] = 1;\n    }\n\n    function deny(address guy) external auth {\n        require(guy != owner, \"EthManager/cannot deny the owner\");\n        wards[guy] = 0;\n    }\n\n    modifier auth {\n        require(wards[msg.sender] == 1, \"EthManager/not-authorized\");\n        _;\n    }\n\n    address public owner;\n\n    uint16 public threshold;\n    mapping(bytes32 => uint16) confirmations;\n\n    /**\n     * @dev constructor\n     * @param link token contract address, e.g., erc20 contract\n     */\n    constructor(ILINK link) public {\n        owner = msg.sender;\n        wards[owner] = 1;\n        link_ = link;\n        threshold = 1;\n    }\n\n    /**\n     * @dev change threshold requirement\n     * @param newTheshold new threshold requirement\n     */\n    function changeThreshold(uint16 newTheshold) public {\n        require(msg.sender == owner, \"EthManager/only owner can change threshold\");\n        threshold = newTheshold;\n    }\n\n    /**\n     * @dev lock tokens to be minted on harmony chain\n     * @param amount amount of tokens to lock\n     * @param recipient recipient address on the harmony chain\n     */\n    function lockToken(uint256 amount, address recipient) public {\n        require(\n            recipient != address(0),\n            \"EthManager/recipient is a zero address\"\n        );\n        require(amount > 0, \"EthManager/zero token locked\");\n        uint256 _balanceBefore = link_.balanceOf(msg.sender);\n        require(\n            link_.transferFrom(msg.sender, address(this), amount),\n            \"EthManager/lock failed\"\n        );\n        uint256 _balanceAfter = link_.balanceOf(msg.sender);\n        uint256 _actualAmount = _balanceBefore.sub(_balanceAfter);\n        emit Locked(address(link_), msg.sender, _actualAmount, recipient);\n    }\n\n    /**\n     * @dev lock tokens for an user address to be minted on harmony chain\n     * @param amount amount of tokens to lock\n     * @param recipient recipient address on the harmony chain\n     */\n    function lockTokenFor(\n        address userAddr,\n        uint256 amount,\n        address recipient\n    ) public auth {\n        require(\n            recipient != address(0),\n            \"EthManager/recipient is a zero address\"\n        );\n        require(amount > 0, \"EthManager/zero token locked\");\n        uint256 _balanceBefore = link_.balanceOf(userAddr);\n        require(\n            link_.transferFrom(userAddr, address(this), amount),\n            \"EthManager/lock failed\"\n        );\n        uint256 _balanceAfter = link_.balanceOf(userAddr);\n        uint256 _actualAmount = _balanceBefore.sub(_balanceAfter);\n        emit Locked(address(link_), userAddr, _actualAmount, recipient);\n    }\n\n    /**\n     * @dev unlock tokens after burning them on harmony chain\n     * @param amount amount of unlock tokens\n     * @param recipient recipient of the unlock tokens\n     * @param receiptId transaction hash of the burn event on harmony chain\n     */\n    function unlockToken(\n        uint256 amount,\n        address recipient,\n        bytes32 receiptId\n    ) public auth {\n        require(\n            !usedEvents_[receiptId],\n            \"EthManager/The burn event cannot be reused\"\n        );\n        confirmations[receiptId] = confirmations[receiptId] + 1;\n        if (confirmations[receiptId] < threshold) {\n            return;\n        }\n        usedEvents_[receiptId] = true;\n        require(link_.transfer(recipient, amount), \"EthManager/unlock failed\");\n        emit Unlocked(address(link_), amount, recipient, receiptId);\n        // delete confirmations entry for receiptId\n        delete confirmations[receiptId];\n    }\n}\n",
  "sourcePath": "/Users/yuriy/pro5/ethhmy-bridge.contract/contracts/link/LINKEthManager.sol",
  "compiler": {
    "name": "solc",
    "version": "0.5.17+commit.d19bba13.Emscripten.clang"
  },
  "schemaVersion": "3.2.0",
  "updatedAt": "2020-09-18T15:37:52.763Z",
  "devdoc": {
    "methods": {
      "changeThreshold(uint16)": {
        "details": "change threshold requirement",
        "params": {
          "newTheshold": "new threshold requirement"
        }
      },
      "constructor": {
        "details": "constructor",
        "params": {
          "link": "token contract address, e.g., erc20 contract"
        }
      },
      "lockToken(uint256,address)": {
        "details": "lock tokens to be minted on harmony chain",
        "params": {
          "amount": "amount of tokens to lock",
          "recipient": "recipient address on the harmony chain"
        }
      },
      "lockTokenFor(address,uint256,address)": {
        "details": "lock tokens for an user address to be minted on harmony chain",
        "params": {
          "amount": "amount of tokens to lock",
          "recipient": "recipient address on the harmony chain"
        }
      },
      "unlockToken(uint256,address,bytes32)": {
        "details": "unlock tokens after burning them on harmony chain",
        "params": {
          "amount": "amount of unlock tokens",
          "receiptId": "transaction hash of the burn event on harmony chain",
          "recipient": "recipient of the unlock tokens"
        }
      }
    }
  },
  "userdoc": {
    "methods": {}
  }
}